{
  "_format": "hh-sol-artifact-1",
  "contractName": "Identeefi",
  "sourceName": "contracts/Identeefi.sol",
  "abi": [
    {
      "anonymous": false,
      "inputs": [
        {
          "indexed": true,
          "internalType": "string",
          "name": "serialNumber",
          "type": "string"
        },
        {
          "indexed": false,
          "internalType": "string",
          "name": "name",
          "type": "string"
        },
        {
          "indexed": false,
          "internalType": "string",
          "name": "manufacturer",
          "type": "string"
        },
        {
          "indexed": false,
          "internalType": "string",
          "name": "createdAt",
          "type": "string"
        },
        {
          "indexed": false,
          "internalType": "string",
          "name": "expiryDate",
          "type": "string"
        }
      ],
      "name": "ProductRegistered",
      "type": "event"
    },
    {
      "anonymous": false,
      "inputs": [
        {
          "indexed": true,
          "internalType": "string",
          "name": "serialNumber",
          "type": "string"
        },
        {
          "indexed": false,
          "internalType": "string",
          "name": "actor",
          "type": "string"
        },
        {
          "indexed": false,
          "internalType": "string",
          "name": "timestamp",
          "type": "string"
        },
        {
          "indexed": false,
          "internalType": "bool",
          "name": "isSold",
          "type": "bool"
        },
        {
          "indexed": false,
          "internalType": "string",
          "name": "expiryDate",
          "type": "string"
        },
        {
          "indexed": false,
          "internalType": "string",
          "name": "note",
          "type": "string"
        }
      ],
      "name": "ProductUpdated",
      "type": "event"
    },
    {
      "inputs": [
        {
          "internalType": "string",
          "name": "_serialNumber",
          "type": "string"
        },
        {
          "internalType": "string",
          "name": "_actor",
          "type": "string"
        },
        {
          "internalType": "string",
          "name": "_location",
          "type": "string"
        },
        {
          "internalType": "string",
          "name": "_timestamp",
          "type": "string"
        },
        {
          "internalType": "bool",
          "name": "_isSold",
          "type": "bool"
        },
        {
          "internalType": "string",
          "name": "_note",
          "type": "string"
        },
        {
          "internalType": "string",
          "name": "_expiryDate",
          "type": "string"
        }
      ],
      "name": "addProductHistory",
      "outputs": [],
      "stateMutability": "nonpayable",
      "type": "function"
    },
    {
      "inputs": [
        {
          "internalType": "string",
          "name": "_serialNumber",
          "type": "string"
        }
      ],
      "name": "getProduct",
      "outputs": [
        {
          "internalType": "string",
          "name": "",
          "type": "string"
        },
        {
          "internalType": "string",
          "name": "",
          "type": "string"
        },
        {
          "internalType": "string",
          "name": "",
          "type": "string"
        },
        {
          "internalType": "string",
          "name": "",
          "type": "string"
        },
        {
          "internalType": "string",
          "name": "",
          "type": "string"
        },
        {
          "internalType": "string",
          "name": "",
          "type": "string"
        },
        {
          "internalType": "string",
          "name": "",
          "type": "string"
        },
        {
          "internalType": "string",
          "name": "",
          "type": "string"
        },
        {
          "components": [
            {
              "internalType": "uint256",
              "name": "id",
              "type": "uint256"
            },
            {
              "internalType": "string",
              "name": "actor",
              "type": "string"
            },
            {
              "internalType": "string",
              "name": "location",
              "type": "string"
            },
            {
              "internalType": "string",
              "name": "timestamp",
              "type": "string"
            },
            {
              "internalType": "bool",
              "name": "isSold",
              "type": "bool"
            },
            {
              "internalType": "string",
              "name": "note",
              "type": "string"
            }
          ],
          "internalType": "struct Identeefi.ProductHistory[]",
          "name": "",
          "type": "tuple[]"
        }
      ],
      "stateMutability": "view",
      "type": "function"
    },
    {
      "inputs": [],
      "name": "owner",
      "outputs": [
        {
          "internalType": "address",
          "name": "",
          "type": "address"
        }
      ],
      "stateMutability": "view",
      "type": "function"
    },
    {
      "inputs": [
        {
          "internalType": "string",
          "name": "_name",
          "type": "string"
        },
        {
          "internalType": "string",
          "name": "_brand",
          "type": "string"
        },
        {
          "internalType": "string",
          "name": "_serialNumber",
          "type": "string"
        },
        {
          "internalType": "string",
          "name": "_description",
          "type": "string"
        },
        {
          "internalType": "string",
          "name": "_image",
          "type": "string"
        },
        {
          "internalType": "string",
          "name": "_manufacturer",
          "type": "string"
        },
        {
          "internalType": "string",
          "name": "_location",
          "type": "string"
        },
        {
          "internalType": "string",
          "name": "_timestamp",
          "type": "string"
        },
        {
          "internalType": "string",
          "name": "_expiryDate",
          "type": "string"
        }
      ],
      "name": "registerProduct",
      "outputs": [],
      "stateMutability": "nonpayable",
      "type": "function"
    }
  ],
  "bytecode": "0x608060405234801561001057600080fd5b50612091806100206000396000f3fe608060405234801561001057600080fd5b506004361061004c5760003560e01c80632edc731014610051578063598b17801461006d57806368111cce146100895780638da5cb5b146100c1575b600080fd5b61006b6004803603810190610066919061129e565b6100df565b005b610087600480360381019061008291906113e8565b6101de565b005b6100a3600480360381019061009e91906115ae565b6103ac565b6040516100b899989796959493929190611848565b60405180910390f35b6100c9610c05565b6040516100d69190611955565b60405180910390f35b60006001886040516100f191906119ac565b9081526020016040518091039020905080600a0160009054906101000a900460ff16610152576040517f08c379a000000000000000000000000000000000000000000000000000000000815260040161014990611a0f565b60405180910390fd5b600082511461016e578181600701908161016c9190611c3b565b505b61017c818888888888610c29565b8760405161018a91906119ac565b60405180910390207f45e683676d89adc43ccb727f872f7b0bf8c9fc2a1aff418a6649d6e1b22ad90088878785600701886040516101cc959493929190611da0565b60405180910390a25050505050505050565b60006001886040516101f091906119ac565b9081526020016040518091039020905080600a0160009054906101000a900460ff1615610252576040517f08c379a000000000000000000000000000000000000000000000000000000000815260040161024990611e5b565b60405180910390fd5b600181600a0160006101000a81548160ff021916908315150217905550898160000190816102809190611c3b565b50888160030190816102929190611c3b565b50878160010190816102a49190611c3b565b50868160020190816102b69190611c3b565b50858160040190816102c89190611c3b565b50848160050190816102da9190611c3b565b50828160060190816102ec9190611c3b565b50818160070190816102fe9190611c3b565b506000816009018190555061034d8186868660006040518060400160405280600a81526020017f5265676973746572656400000000000000000000000000000000000000000000815250610c29565b8760405161035b91906119ac565b60405180910390207fc9e74afa68bf866cdbdf34705ad5fb5d4bc3a8719333f68143fb9c74db238cd88b8786866040516103989493929190611e7b565b60405180910390a250505050505050505050565b6060806060806060806060806060600060018b6040516103cc91906119ac565b9081526020016040518091039020905080600a0160009054906101000a900460ff1661042d576040517f08c379a000000000000000000000000000000000000000000000000000000000815260040161042490611a0f565b60405180910390fd5b6000816009015467ffffffffffffffff81111561044d5761044c61113b565b5b60405190808252806020026020018201604052801561048657816020015b6104736110ca565b81526020019060019003908161046b5790505b50905060005b8260090154811015610762578260080160006001836104ab9190611f0b565b81526020019081526020016000206040518060c0016040529081600082015481526020016001820180546104de90611a5e565b80601f016020809104026020016040519081016040528092919081815260200182805461050a90611a5e565b80156105575780601f1061052c57610100808354040283529160200191610557565b820191906000526020600020905b81548152906001019060200180831161053a57829003601f168201915b5050505050815260200160028201805461057090611a5e565b80601f016020809104026020016040519081016040528092919081815260200182805461059c90611a5e565b80156105e95780601f106105be576101008083540402835291602001916105e9565b820191906000526020600020905b8154815290600101906020018083116105cc57829003601f168201915b5050505050815260200160038201805461060290611a5e565b80601f016020809104026020016040519081016040528092919081815260200182805461062e90611a5e565b801561067b5780601f106106505761010080835404028352916020019161067b565b820191906000526020600020905b81548152906001019060200180831161065e57829003601f168201915b505050505081526020016004820160009054906101000a900460ff161515151581526020016005820180546106af90611a5e565b80601f01602080910402602001604051908101604052809291908181526020018280546106db90611a5e565b80156107285780601f106106fd57610100808354040283529160200191610728565b820191906000526020600020905b81548152906001019060200180831161070b57829003601f168201915b50505050508152505082828151811061074457610743611f3f565b5b6020026020010181905250808061075a90611f6e565b91505061048c565b5081600101826000018360030184600201856004018660050187600601886007018888805461079090611a5e565b80601f01602080910402602001604051908101604052809291908181526020018280546107bc90611a5e565b80156108095780601f106107de57610100808354040283529160200191610809565b820191906000526020600020905b8154815290600101906020018083116107ec57829003601f168201915b5050505050985087805461081c90611a5e565b80601f016020809104026020016040519081016040528092919081815260200182805461084890611a5e565b80156108955780601f1061086a57610100808354040283529160200191610895565b820191906000526020600020905b81548152906001019060200180831161087857829003601f168201915b505050505097508680546108a890611a5e565b80601f01602080910402602001604051908101604052809291908181526020018280546108d490611a5e565b80156109215780601f106108f657610100808354040283529160200191610921565b820191906000526020600020905b81548152906001019060200180831161090457829003601f168201915b5050505050965085805461093490611a5e565b80601f016020809104026020016040519081016040528092919081815260200182805461096090611a5e565b80156109ad5780601f10610982576101008083540402835291602001916109ad565b820191906000526020600020905b81548152906001019060200180831161099057829003601f168201915b505050505095508480546109c090611a5e565b80601f01602080910402602001604051908101604052809291908181526020018280546109ec90611a5e565b8015610a395780601f10610a0e57610100808354040283529160200191610a39565b820191906000526020600020905b815481529060010190602001808311610a1c57829003601f168201915b50505050509450838054610a4c90611a5e565b80601f0160208091040260200160405190810160405280929190818152602001828054610a7890611a5e565b8015610ac55780601f10610a9a57610100808354040283529160200191610ac5565b820191906000526020600020905b815481529060010190602001808311610aa857829003601f168201915b50505050509350828054610ad890611a5e565b80601f0160208091040260200160405190810160405280929190818152602001828054610b0490611a5e565b8015610b515780601f10610b2657610100808354040283529160200191610b51565b820191906000526020600020905b815481529060010190602001808311610b3457829003601f168201915b50505050509250818054610b6490611a5e565b80601f0160208091040260200160405190810160405280929190818152602001828054610b9090611a5e565b8015610bdd5780601f10610bb257610100808354040283529160200191610bdd565b820191906000526020600020905b815481529060010190602001808311610bc057829003601f168201915b505050505091509a509a509a509a509a509a509a509a509a5050509193959799909294969850565b60008054906101000a900473ffffffffffffffffffffffffffffffffffffffff1681565b856009016000815480929190610c3e90611f6e565b91905055506040518060c001604052808760090154815260200186815260200185815260200184815260200183151581526020018281525086600801600088600901548152602001908152602001600020600082015181600001556020820151816001019081610cae9190611c3b565b506040820151816002019081610cc49190611c3b565b506060820151816003019081610cda9190611c3b565b5060808201518160040160006101000a81548160ff02191690831515021790555060a0820151816005019081610d109190611c3b565b50905050610d576040518060400160405280601081526020017f486973746f72792073697a653a202573000000000000000000000000000000008152508760090154610f4c565b610e3a6040518060400160405280601981526020017f50726f6475637420486973746f72792061646465643a20257300000000000000815250876008016000896009015481526020019081526020016000206001018054610db790611a5e565b80601f0160208091040260200160405190810160405280929190818152602001828054610de390611a5e565b8015610e305780601f10610e0557610100808354040283529160200191610e30565b820191906000526020600020905b815481529060010190602001808311610e1357829003601f168201915b5050505050610fe8565b610f056040518060400160405280600c81526020017f50726f64756374203a2025730000000000000000000000000000000000000000815250876000018054610e8290611a5e565b80601f0160208091040260200160405190810160405280929190818152602001828054610eae90611a5e565b8015610efb5780601f10610ed057610100808354040283529160200191610efb565b820191906000526020600020905b815481529060010190602001808311610ede57829003601f168201915b5050505050610fe8565b610f446040518060400160405280600981526020017f4e6f7465203a202573000000000000000000000000000000000000000000000081525082610fe8565b505050505050565b610fe48282604051602401610f62929190611fc5565b6040516020818303038152906040527fb60e72cc000000000000000000000000000000000000000000000000000000007bffffffffffffffffffffffffffffffffffffffffffffffffffffffff19166020820180517bffffffffffffffffffffffffffffffffffffffffffffffffffffffff8381831617835250505050611084565b5050565b6110808282604051602401610ffe929190611ff5565b6040516020818303038152906040527f4b5c4277000000000000000000000000000000000000000000000000000000007bffffffffffffffffffffffffffffffffffffffffffffffffffffffff19166020820180517bffffffffffffffffffffffffffffffffffffffffffffffffffffffff8381831617835250505050611084565b5050565b61109b8161109361109e6110bf565b63ffffffff16565b50565b60006a636f6e736f6c652e6c6f679050600080835160208501845afa505050565b611102819050919050565b6040518060c0016040528060008152602001606081526020016060815260200160608152602001600015158152602001606081525090565b61110a61202c565b565b6000604051905090565b600080fd5b600080fd5b600080fd5b600080fd5b6000601f19601f8301169050919050565b7f4e487b7100000000000000000000000000000000000000000000000000000000600052604160045260246000fd5b6111738261112a565b810181811067ffffffffffffffff821117156111925761119161113b565b5b80604052505050565b60006111a561110c565b90506111b1828261116a565b919050565b600067ffffffffffffffff8211156111d1576111d061113b565b5b6111da8261112a565b9050602081019050919050565b82818337600083830152505050565b6000611209611204846111b6565b61119b565b90508281526020810184848401111561122557611224611125565b5b6112308482856111e7565b509392505050565b600082601f83011261124d5761124c611120565b5b813561125d8482602086016111f6565b91505092915050565b60008115159050919050565b61127b81611266565b811461128657600080fd5b50565b60008135905061129881611272565b92915050565b600080600080600080600060e0888a0312156112bd576112bc611116565b5b600088013567ffffffffffffffff8111156112db576112da61111b565b5b6112e78a828b01611238565b975050602088013567ffffffffffffffff8111156113085761130761111b565b5b6113148a828b01611238565b965050604088013567ffffffffffffffff8111156113355761133461111b565b5b6113418a828b01611238565b955050606088013567ffffffffffffffff8111156113625761136161111b565b5b61136e8a828b01611238565b945050608061137f8a828b01611289565b93505060a088013567ffffffffffffffff8111156113a05761139f61111b565b5b6113ac8a828b01611238565b92505060c088013567ffffffffffffffff8111156113cd576113cc61111b565b5b6113d98a828b01611238565b91505092959891949750929550565b60008060008060008060008060006101208a8c03121561140b5761140a611116565b5b60008a013567ffffffffffffffff8111156114295761142861111b565b5b6114358c828d01611238565b99505060208a013567ffffffffffffffff8111156114565761145561111b565b5b6114628c828d01611238565b98505060408a013567ffffffffffffffff8111156114835761148261111b565b5b61148f8c828d01611238565b97505060608a013567ffffffffffffffff8111156114b0576114af61111b565b5b6114bc8c828d01611238565b96505060808a013567ffffffffffffffff8111156114dd576114dc61111b565b5b6114e98c828d01611238565b95505060a08a013567ffffffffffffffff81111561150a5761150961111b565b5b6115168c828d01611238565b94505060c08a013567ffffffffffffffff8111156115375761153661111b565b5b6115438c828d01611238565b93505060e08a013567ffffffffffffffff8111156115645761156361111b565b5b6115708c828d01611238565b9250506101008a013567ffffffffffffffff8111156115925761159161111b565b5b61159e8c828d01611238565b9150509295985092959850929598565b6000602082840312156115c4576115c3611116565b5b600082013567ffffffffffffffff8111156115e2576115e161111b565b5b6115ee84828501611238565b91505092915050565b600081519050919050565b600082825260208201905092915050565b60005b83811015611631578082015181840152602081019050611616565b60008484015250505050565b6000611648826115f7565b6116528185611602565b9350611662818560208601611613565b61166b8161112a565b840191505092915050565b600081519050919050565b600082825260208201905092915050565b6000819050602082019050919050565b6000819050919050565b6116b5816116a2565b82525050565b600082825260208201905092915050565b60006116d7826115f7565b6116e181856116bb565b93506116f1818560208601611613565b6116fa8161112a565b840191505092915050565b61170e81611266565b82525050565b600060c08301600083015161172c60008601826116ac565b506020830151848203602086015261174482826116cc565b9150506040830151848203604086015261175e82826116cc565b9150506060830151848203606086015261177882826116cc565b915050608083015161178d6080860182611705565b5060a083015184820360a08601526117a582826116cc565b9150508091505092915050565b60006117be8383611714565b905092915050565b6000602082019050919050565b60006117de82611676565b6117e88185611681565b9350836020820285016117fa85611692565b8060005b85811015611836578484038952815161181785826117b2565b9450611822836117c6565b925060208a019950506001810190506117fe565b50829750879550505050505092915050565b6000610120820190508181036000830152611863818c61163d565b90508181036020830152611877818b61163d565b9050818103604083015261188b818a61163d565b9050818103606083015261189f818961163d565b905081810360808301526118b3818861163d565b905081810360a08301526118c7818761163d565b905081810360c08301526118db818661163d565b905081810360e08301526118ef818561163d565b905081810361010083015261190481846117d3565b90509a9950505050505050505050565b600073ffffffffffffffffffffffffffffffffffffffff82169050919050565b600061193f82611914565b9050919050565b61194f81611934565b82525050565b600060208201905061196a6000830184611946565b92915050565b600081905092915050565b6000611986826115f7565b6119908185611970565b93506119a0818560208601611613565b80840191505092915050565b60006119b8828461197b565b915081905092915050565b7f50726f64756374206e6f7420666f756e64000000000000000000000000000000600082015250565b60006119f9601183611602565b9150611a04826119c3565b602082019050919050565b60006020820190508181036000830152611a28816119ec565b9050919050565b7f4e487b7100000000000000000000000000000000000000000000000000000000600052602260045260246000fd5b60006002820490506001821680611a7657607f821691505b602082108103611a8957611a88611a2f565b5b50919050565b60008190508160005260206000209050919050565b60006020601f8301049050919050565b600082821b905092915050565b600060088302611af17fffffffffffffffffffffffffffffffffffffffffffffffffffffffffffffffff82611ab4565b611afb8683611ab4565b95508019841693508086168417925050509392505050565b6000819050919050565b6000611b38611b33611b2e846116a2565b611b13565b6116a2565b9050919050565b6000819050919050565b611b5283611b1d565b611b66611b5e82611b3f565b848454611ac1565b825550505050565b600090565b611b7b611b6e565b611b86818484611b49565b505050565b5b81811015611baa57611b9f600082611b73565b600181019050611b8c565b5050565b601f821115611bef57611bc081611a8f565b611bc984611aa4565b81016020851015611bd8578190505b611bec611be485611aa4565b830182611b8b565b50505b505050565b600082821c905092915050565b6000611c1260001984600802611bf4565b1980831691505092915050565b6000611c2b8383611c01565b9150826002028217905092915050565b611c44826115f7565b67ffffffffffffffff811115611c5d57611c5c61113b565b5b611c678254611a5e565b611c72828285611bae565b600060209050601f831160018114611ca55760008415611c93578287015190505b611c9d8582611c1f565b865550611d05565b601f198416611cb386611a8f565b60005b82811015611cdb57848901518255600182019150602085019450602081019050611cb6565b86831015611cf85784890151611cf4601f891682611c01565b8355505b6001600288020188555050505b505050505050565b611d1681611266565b82525050565b60008154611d2981611a5e565b611d338186611602565b94506001821660008114611d4e5760018114611d6457611d97565b60ff198316865281151560200286019350611d97565b611d6d85611a8f565b60005b83811015611d8f57815481890152600182019150602081019050611d70565b808801955050505b50505092915050565b600060a0820190508181036000830152611dba818861163d565b90508181036020830152611dce818761163d565b9050611ddd6040830186611d0d565b8181036060830152611def8185611d1c565b90508181036080830152611e03818461163d565b90509695505050505050565b7f50726f6475637420616c72656164792072656769737465726564000000000000600082015250565b6000611e45601a83611602565b9150611e5082611e0f565b602082019050919050565b60006020820190508181036000830152611e7481611e38565b9050919050565b60006080820190508181036000830152611e95818761163d565b90508181036020830152611ea9818661163d565b90508181036040830152611ebd818561163d565b90508181036060830152611ed1818461163d565b905095945050505050565b7f4e487b7100000000000000000000000000000000000000000000000000000000600052601160045260246000fd5b6000611f16826116a2565b9150611f21836116a2565b9250828201905080821115611f3957611f38611edc565b5b92915050565b7f4e487b7100000000000000000000000000000000000000000000000000000000600052603260045260246000fd5b6000611f79826116a2565b91507fffffffffffffffffffffffffffffffffffffffffffffffffffffffffffffffff8203611fab57611faa611edc565b5b600182019050919050565b611fbf816116a2565b82525050565b60006040820190508181036000830152611fdf818561163d565b9050611fee6020830184611fb6565b9392505050565b6000604082019050818103600083015261200f818561163d565b90508181036020830152612023818461163d565b90509392505050565b7f4e487b7100000000000000000000000000000000000000000000000000000000600052605160045260246000fdfea2646970667358221220c8763a5a23187b9f0d5e892c869bd21f7a50bc158c86896abdc190428ccb6a8864736f6c63430008110033",
  "linkReferences": {},
  "deployedLinkReferences": {}
}